export const test_data = {
  address: '0x1e8d99d2278acc10a9d67d89983e2920df33b485',
  privateKey: '0x168bc693ec2323ad210c2888ab46b31178dec8d6f1d1c216dcc42f591b218489',
  balance: 6690000000000000,
  gasPrice: 55000000233
}

export const recipient_address = '0x39cf65754e55c69e5729b4ea57df526fa8ea684f'

export const test_tx_data = {
  addressTo: recipient_address,
  fee: {
    USD: 0.5417,
    addText: '',
    fee: '0.0014553',
    gasLimit: 21000,
    gasPrice: 69300000000,
    id: 'optimal',
    name: 'Optimal',
    title: 'Optimal fee',
    value: '0.0014553'
  },
  nonce: 40,
  value: 0.0052347
}

export const test_tx = {
  hash: '0x79811f42822f3d6740ed28ba66fd07ed048f98b4d3575f3e688a7fad8ce3a51a',
  tx: '0xf86b288510229a15008252089439cf65754e55c69e5729b4ea57df526fa8ea684f871298ee920178008026a06b07ca11e71b8d31422b0a364b3412bb695cfb245ca03dac012021ba065dedb6a07fde33f884bc5c1caa9fe35a638d7862a739764b190f889bd96345b9faedbed8'
}
